:0420000017EF10F0D6
:08200800EA6A060EE96EEF50D2
:102010000DE0060E016E006A002EFED7012EFBD7E2
:102020007B0E006E002EFED7EF2EF3D7000CF86A61
:10203000D09EEA6AE96AC150C00B0F09C16E070E53
:10204000B46EC290C150C00B0F09C16E000E946EE9
:10205000936E956E926E8B6A8A6A896A8C6A8B829D
:102060008B8A8B8E080E056EFA0E066ECDDF052E5E
:10207000FBD78B928B9A8B9E8A848A888A8A8A8CD9
:10208000080E056EFA0E066EBFDF052EFBD78A948A
:102090008A988A9A8A9C8980898289848988080E8C
:1020A000056EFA0E066EB0DF052EFBD78990899279
:1020B00089948998FF0E8C6E080E056EFA0E066ED6
:1020C000A3DF052EFBD78C6AAA0E8A6E080E056E5A
:1020D000FA0E066E99DF052EFBD78A6A550E8B6EB7
:1020E000080E056EFA0E066E8FDF052EFBD78B6A83
:1020F000030E896E080E056EFA0E066E85DF052E3C
:10210000FBD7896A8C828C888C8A080E056EFA0E41
:10211000066E7ADF052EFBD78C928C988C9A8A807B
:102120008A828B848C86080E056EFA0E066E6CDF32
:10213000052EFBD78A908A928B948C968A828B8408
:102140008C86080E056EFA0E066E5EDF052EFBD736
:0A2150008A928B948C9683D70300CB
:020000040030CA
:0E00000024CC3E1E008781000FC00FE00F4091
:00000001FF
;PIC18F4550
;CRC=50B3  CREATED="23-sep.-21 20:12"
